:100000000C942A000C943F000C943F000C943F0089
:100010000C943F000C943F000C943F000C943F0064
:100020000C943F000C943F000C943F000C943F0054
:100030000C943F000C943F000C943F000C943F0044
:100040000C943F000C943F000C943F000C943F0034
:100050000C943F0011241FBECFE5D8E0DEBFCDBF1A
:1000600010E0A0E6B0E0EAE8F3E002C005900D92EF
:10007000AC37B107D9F70E9469010C94C3010C9405
:1000800000000E948C010895CF93C82F843010F097
:1000900087E001C086E097980E9496018C2F829598
:1000A000880F880F807C0E949601C82F8FEF0E94D6
:1000B0009601979ACF702C2F30E0322F2227A9017A
:1000C000482BCA01CF91089587B3807F87BB969A4A
:1000D000939882E08A95F1F700C0C49A92E09A95CD
:1000E000F1F700C086B38295807F92E09A95F1F790
:1000F00000C0C49895E09A95F1F70000C49A92E088
:100100009A95F1F700C096B392E09A95F1F700C086
:10011000C49895E09A95F1F700008823F4F2969838
:1001200087B38F6087BB0895282F22952F708F701B
:10013000611102C0939801C0939A92E09A95F1F7E9
:1001400000C0C49A98B3907F922B98BB95E09A9583
:10015000F1F70000C49895E09A95F1F70000C49A71
:1001600098B3907F892B88BB85E08A95F1F70000D2
:10017000C49895E09A95F1F700000E9464000895F4
:10018000CF93C82F2FEF86E791E021508040904019
:10019000E1F700C0000087B38F6087BBBC9A8B9AE1
:1001A0008E9A88B3807F88BBC4989698939800C035
:1001B00000C00000C49AC19A25E02A95F1F700001A
:1001C000C49885E08A95F1F700000E94640060E021
:1001D0008C2F8C600E94940060E088E20E94940062
:1001E000CF910895CF93DF93EC018881882339F074
:1001F000219661E00E94940089918111FACFDF91EC
:10020000CF910895EF92FF920F931F93CF93DF93B7
:1002100000D000D01F92CDB7DEB77B01FE01319632
:1002200025E0DF011D922A95E9F7009759F03596F0
:100230002AE030E0B9010E949B018293862F972F1C
:100240000097C1F7BFEFEB16FB0669F489818111B6
:100250001EC0FE01329600E010E00F5F1F4F81913B
:100260008823D9F310C005E010E00E191F090BC058
:10027000F80181918F0161E0805D0E9494000E156C
:100280001F05B1F711C0053011051CF00DC000E0CD
:1002900010E081E090E08C0F9D1F080F191F7E0178
:1002A00096E0E90EF11CE4CF0F900F900F900F90A5
:1002B0000F90DF91CF911F910F91FF90EF900895D4
:1002C000883230F46111806460E080680E9494009C
:1002D000089582E00E94C0000E94410087E00E94D1
:1002E0004400EC0160E080E00E94600180E690E064
:1002F0000E94F20061E080E00E94600181E790E0EE
:100300000E94F20061E089E00E94600165E070E017
:10031000CE010E940201E2CF87B3806B87BBC49AF3
:100320008F9A979A8DB181658DB908958FB9779B12
:10033000FECF8FB1089597FB072E16F4009407D0D7
:1003400077FD09D00E94AF0107FC05D03EF49095DF
:1003500081959F4F0895709561957F4F0895AA1BD1
:10036000BB1B51E107C0AA1FBB1FA617B70710F0A0
:10037000A61BB70B881F991F5A95A9F780959095D2
:0A038000BC01CD010895F894FFCFF1
:10038A004D4350333230382041444320546573740E
:0C039A0000726573756C74203D2000003B
:00000001FF
