:100000000C942A000C943F000C943F000C943F0089
:100010000C943F000C943F000C943F000C943F0064
:100020000C943F000C943F000C943F000C943F0054
:100030000C943F000C943F000C943F000C943F0044
:100040000C943F000C943F000C943F000C943F0034
:100050000C943F0011241FBECFE5D8E0DEBFCDBF1A
:1000600010E0A0E6B0E0E8E9F3E002C005900D92F0
:10007000AC37B107D9F70E9441000C94CA010C9427
:1000800000000F931F9382E00E94F0000E949A00EC
:1000900080E00E947A008C0180E060E00E949A017A
:1000A00080E690E00E94210180E061E00E949A01D8
:1000B00081E790E00E94210189E061E00E949A01BD
:1000C000C80165E070E00E943101E2CF87B3806B28
:1000D00087BBC49A8F9A979A8DB181658DB908951F
:1000E0006E9887B38F7587BB08958FB9779BFECFC6
:1000F0008FB108951F93182F8430D0F087E0979820
:100100000E947500812F8295880F880F807C0E9445
:100110007500182F8FEF0E947500979A512F5F700E
:1001200040E0282F30E0242B352BC9011F91089582
:1001300086E0E5CF0E946600089587B3807F87BB85
:10014000969A939882E08A95F1F722E035E0C49A76
:10015000822F8A95F1F786B38295807F922F9A95A8
:10016000F1F7C498932F9A95F1F7C49A922F9A9524
:10017000F1F796B3922F9A95F1F7C498932F9A9529
:10018000F1F787FDE4CF969887B38F6087BB08951A
:10019000282F662319F1939A82E08A95F1F7C49A81
:1001A00088B3922F92959F70807F982B98BB95E093
:1001B000892F8A95F1F7C498892F8A95F1F7C49A07
:1001C00088B32F70807F822B88BB892F8A95F1F7A7
:1001D000C4989A95F1F70E949D0008959398DCCFFA
:1001E0001F93182F2CE231E040E951E0CA0101973A
:1001F000F1F721503040D1F787B38F6087BBBC9AAD
:100200008B9A8E9A88B3807F88BBC498969893986F
:1002100081E08A95F1F7C49AC19A85E0982F9A9562
:10022000F1F7C4988A95F1F70E949D00812F8C60A8
:1002300060E00E94C80088E260E00E94C8001F9150
:100240000895CF93DF93EC018881882339F061E032
:100250000E94C800219688818823C9F7DF91CF9139
:100260000895EF92FF920F931F93DF93CF9300D0E7
:1002700000D00F92CDB7DEB79C018B017E010894B0
:10028000E11CF11C85E0F70111928A95E9F721152F
:10029000310591F0FE013596C9016AE070E00E94D7
:1002A000A3018083C9016AE070E00E94A3019B0161
:1002B00031976115710581F7FFEF0F3F1F0749F176
:1002C00025E030E0201B310B25303105B4F4F70177
:1002D000E20FF31F808189010F5F1F4FE00EF11EB7
:1002E00005C0F70181917F010F5F1F4F805D61E0C5
:1002F0000E94C80005301105A4F30F900F900F90D5
:100300000F900F90CF91DF911F910F91FF90EF9081
:1003100008958981882359F420E030E02F5F3F4F12
:10032000F701E20FF31F80818823C1F3CDCF20E0D6
:1003300030E0D1CF883230F461118064806860E0B1
:100340000E94C800089597FB092E07260AD077FD62
:1003500004D00CD006D000201AF4709561957F4F20
:100360000895F6F7909581959F4F0895AA1BBB1BA2
:1003700051E107C0AA1FBB1FA617B70710F0A61BA5
:10038000B70B881F991F5A95A9F780959095BC01C6
:08039000CD010895F894FFCFA0
:100398004D43503332303420414443205465737404
:0C03A80000726573756C74203D2000002D
:00000001FF
